:020000040800F2
:100000000000022085310008D9300008DB300008EC
:10001000DD300008DF300008E1300008000000009B
:10002000000000000000000000000000E3300008B5
:10003000E530000800000000E7300008E930000863
:10004000D5310008D5310008D5310008D531000878
:10005000D5310008D5310008D5310008D531000868
:10006000D5310008D5310008D5310008D531000858
:10007000D5310008D5310008D5310008D531000848
:10008000F5300008D5310008D5310008D531000819
:10009000D5310008D5310008D5310008D531000828
:1000A000D531000805310008D5310008D5310008E8
:1000B000D5310008D5310008D5310008D531000808
:1000C000D5310008D5310008D5310008D5310008F8
:1000D000D5310008D5310008D5310008D5310008E8
:1000E0002D310008D5310008D5310008D531000880
:1000F000D5310008D5310008D5310008D5310008C8
:10010000D5310008D5310008D5310008D5310008B7
:10011000D5310008D531000815310008D531000867
:10012000D5310008D5310008D5310008D531000897
:10013000D53100080000000000000000D5310008A3
:10014000D5310008D5310008D5310008D531000877
:10015000D5310008D5310008D5310008D531000867
:10016000D5310008D5310008D5310008D531000857
:10017000D5310008D5310008D53100080000000055
:1001800000000000D5310008000000000000000061
:10019000D53100080000000000000000D531000843
:1001A000000000000000000000000000D531000841
:1001B000D5310008D5310008D5310008D531000807
:0401C000D53100082D
:1001C80010B5054C237833B9044B13B10448AFF389
:1001D80000800123237010BD2C00002000000000C7
:1001E8002032000808B5034B1BB103490348AFF39D
:1001F800008008BD00000000300000202032000808
:1002080081F0004102E000BF83F0004330B54FEABF
:1002180041044FEA430594EA050F08BF90EA020F2C
:100228001FBF54EA000C55EA020C7FEA645C7FEABF
:10023800655C00F0E2804FEA5454D4EB5555B8BFE2
:100248006D420CDD2C4480EA020281EA030382EA53
:10025800000083EA010180EA020281EA0303362DE5
:1002680088BF30BD11F0004F4FEA01314FF4801CB8
:100278004CEA113102D0404261EB410113F0004FCA
:100288004FEA03334CEA133302D0524263EB430381
:1002980094EA050F00F0A780A4F10104D5F1200E1F
:1002A8000DDB02FA0EFC22FA05F2801841F100017A
:1002B80003FA0EF2801843FA05F359410EE0A5F14E
:1002C80020050EF1200E012A03FA0EFC28BF4CF07F
:1002D800020C43FA05F3C01851EBE37101F0004535
:1002E80007D54FF0000EDCF1000C7EEB00006EEB42
:1002F8000101B1F5801F1BD3B1F5001F0CD34908CC
:100308005FEA30004FEA3C0C04F101044FEA445222
:1003180012F5800F80F09A80BCF1004F08BF5FEAA9
:10032800500C50F1000041EB045141EA050130BD89
:100338005FEA4C0C404141EB010111F4801FA4F12C
:100348000104E9D191F0000F04BF01460020B1FA81
:1003580081F308BF2033A3F10B03B3F120020CDAB9
:100368000C3208DD02F1140CC2F10C0201FA0CF097
:1003780021FA02F10CE002F11402D8BFC2F1200CFC
:1003880001FA02F120FA0CFCDCBF41EA0C019040B2
:10039800E41AA2BF01EB0451294330BD6FEA0404FB
:1003A8001F3C1CDA0C340EDC04F11404C4F12002E6
:1003B80020FA04F001FA02F340EA030021FA04F3F8
:1003C80045EA030130BDC4F10C04C4F1200220FA4F
:1003D80002F001FA04F340EA0300294630BD21FA8D
:1003E80004F0294630BD94F0000F83F4801306BF53
:1003F80081F480110134013D4EE77FEA645C18BF47
:100408007FEA655C29D094EA050F08BF90EA020FDD
:1004180005D054EA000C04BF1946104630BD91EAD5
:10042800030F1EBF0021002030BD5FEA545C05D1D8
:100438004000494128BF41F0004130BD14F5800417
:100448003CBF01F5801130BD01F0004545F0FE418B
:1004580041F470014FF0000030BD7FEA645C1ABFC0
:10046800194610467FEA655C1CBF0B46024650EAF7
:10047800013406BF52EA033591EA030F41F4002123
:1004880030BD00BF90F0000F04BF0021704730B5A9
:100498004FF4806404F132044FF000054FF000017E
:1004A80050E700BF90F0000F04BF0021704730B53F
:1004B8004FF4806404F1320410F0004548BF404214
:1004C8004FF000013EE700BF42004FEAE2014FEA69
:1004D80031014FEA02701FBF12F07F4393F07F4F44
:1004E80081F06051704732F07F4208BF704793F047
:1004F8007F4F04BF41F40021704730B54FF460745A
:1005080001F0004521F000411CE700BF50EA01025C
:1005180008BF704730B54FF000050AE050EA010205
:1005280008BF704730B511F0004502D5404261EB75
:1005380041014FF4806404F132045FEA915C3FF4B6
:10054800D8AE4FF003025FEADC0C18BF03325FEA53
:10055800DC0C18BF033202EBDC02C2F1200300FA04
:1005680003FC20FA02F001FA03FE40EA0E0021FA29
:1005780002F11444BDE600BF70B54FF0FF0C4CF417
:10058800E06C1CEA11541DBF1CEA135594EA0C0FC9
:1005980095EA0C0F00F0DEF82C4481EA030621EA04
:1005A8004C5123EA4C5350EA013518BF52EA03353F
:1005B80041F4801143F4801338D0A0FB02CE4FF0F1
:1005C8000005E1FB02E506F00042E0FB03E54FF021
:1005D8000006E1FB03569CF0000F18BF4EF0010E19
:1005E800A4F1FF04B6F5007F64F5407404D25FEA15
:1005F8004E0E6D4146EB060642EAC62141EA5551C8
:100608004FEAC52040EA5E504FEACE2EB4F1FD0C09
:1006180088BFBCF5E06F1ED8BEF1004F08BF5FEA87
:10062800500E50F1000041EB045170BD06F0004639
:1006380046EA010140EA020081EA0301B4EB5C04E6
:10064800C2BFD4EB0C0541EA045170BD41F48011DE
:100658004FF0000E013C00F3AB8014F1360FDEBF03
:10066800002001F0004170BDC4F10004203C35DADF
:100678000C341BDC04F11404C4F1200500FA05F362
:1006880020FA04F001FA05F240EA020001F0004203
:1006980021F0004110EBD37021FA04F642EB060179
:1006A8005EEA430E08BF20EAD37070BDC4F10C04A3
:1006B800C4F1200500FA04F320FA05F001FA04F267
:1006C80040EA020001F0004110EBD37041F1000153
:1006D8005EEA430E08BF20EAD37070BDC4F120055E
:1006E80000FA05F24EEA020E20FA04F301FA05F2C6
:1006F80043EA020321FA04F001F0004121FA04F26E
:1007080020EA020000EBD3705EEA430E08BF20EA3D
:10071800D37070BD94F0000F0FD101F00046400077
:1007280041EB010111F4801F08BF013CF7D041EAF9
:10073800060195F0000F18BF704703F000465200FD
:1007480043EB030313F4801F08BF013DF7D043EACE
:100758000603704794EA0C0F0CEA135518BF95EA84
:100768000C0F0CD050EA410618BF52EA4306D1D10B
:1007780081EA030101F000414FF0000070BD50EA2A
:10078800410606BF1046194652EA430619D094EAB4
:100798000C0F02D150EA013613D195EA0C0F05D19E
:1007A80052EA03361CBF104619460AD181EA0301F2
:1007B80001F0004141F0FE4141F470014FF00000AA
:1007C80070BD41F0FE4141F4780170BD70B54FF045
:1007D800FF0C4CF4E06C1CEA11541DBF1CEA1355C5
:1007E80094EA0C0F95EA0C0F00F0A7F8A4EB0504A7
:1007F80081EA030E52EA03354FEA013100F088809E
:100808004FEA03334FF0805545EA131343EA126366
:100818004FEA022245EA111545EA10654FEA00261B
:100828000EF000419D4208BF964244F1FD0404F5D4
:10083800407402D25B084FEA3202B61A65EB030530
:100848005B084FEA32024FF480104FF4002CB6EBED
:10085800020E75EB030E22BFB61A754640EA0C006D
:100868005B084FEA3202B6EB020E75EB030E22BFAD
:10087800B61A754640EA5C005B084FEA3202B6EBEE
:10088800020E75EB030E22BFB61A754640EA9C00AD
:100898005B084FEA3202B6EB020E75EB030E22BF7D
:1008A800B61A754640EADC0055EA060E18D04FEA3B
:1008B800051545EA16754FEA06164FEAC30343EADB
:1008C80052734FEAC2025FEA1C1CC0D111F4801FA8
:1008D8000BD141EA00014FF000004FF0004CB6E7A1
:1008E80011F4801F04BF01430020B4F1FD0C88BF40
:1008F800BCF5E06F3FF6AFAEB5EB030C04BFB6EB4B
:10090800020C5FEA500C50F1000041EB045170BD3D
:100918000EF0004E4EEA113114EB5C04C2BFD4EB6A
:100928000C0541EA045170BD41F480114FF0000EEE
:10093800013C90E645EA060E8DE60CEA135594EA6A
:100948000C0F08BF95EA0C0F3FF43BAF94EA0C0F6D
:100958000AD150EA01347FF434AF95EA0C0F7FF4E2
:1009680025AF104619462CE795EA0C0F06D152EA36
:1009780003353FF4FDAE1046194622E750EA41061A
:1009880018BF52EA43067FF4C5AE50EA41047FF42B
:100998000DAF52EA43057FF4EBAE12E74FF0FF3C90
:1009A80006E000BF4FF0010C02E000BF4FF0010C61
:1009B8004DF804CD4FEA410C7FEA6C5C4FEA430CDA
:1009C80018BF7FEA6C5C1BD001B050EA410C0CBF29
:1009D80052EA430C91EA030F02BF90EA020F00208B
:1009E800704710F1000F91EA030F58BF994208BFF2
:1009F80090422CBFD8176FEAE37040F001007047AF
:100A08004FEA410C7FEA6C5C02D150EA013C07D105
:100A18004FEA430C7FEA6C5CD6D152EA033CD3D050
:100A28005DF8040B704700BF8446104662468C464A
:100A38001946634600E000BF01B5FFF7B7FF00287D
:100A480048BF10F1000F01BD4DF808EDFFF7F4FFA6
:100A58000CBF012000205DF808FB00BF4DF808ED31
:100A6800FFF7EAFF34BF012000205DF808FB00BF54
:100A78004DF808EDFFF7E0FF94BF012000205DF876
:100A880008FB00BF4DF808EDFFF7CEFF94BF01202B
:100A980000205DF808FB00BF4DF808EDFFF7C4FF24
:100AA80034BF012000205DF808FB00BF4FEA410277
:100AB80012F5001215D211D56FF47873B3EB6252A8
:100AC80012D94FEAC12343F0004343EA505311F0CF
:100AD800004F23FA02F018BF404270474FF0000061
:100AE800704750EA013005D111F0004008BF6FF09F
:100AF800004070474FF00000704700BF4A0011D215
:100B080012F5001211D20DD56FF47873B3EB62525F
:100B18000ED44FEAC12343F0004343EA505323FA6B
:100B280002F070474FF00000704750EA013002D1E0
:100B38004FF0FF3070474FF0000070477BB972B933
:100B48000029BEBF00204FF0004106E008BF002882
:100B58001CBF6FF000414FF0FF3000F0BDB9ADF1A0
:100B6800080C6DE904CE002909DB002B1ADB00F024
:100B78004DF8DDF804E0DDE9022304B07047404297
:100B880061EB4101002B1BDB00F040F8DDF804E0CD
:100B9800DDE9022304B0404261EB4101524263EBBC
:100BA80043037047524263EB430300F02FF8DDF82C
:100BB80004E0DDE9022304B0404261EB41017047E3
:100BC800524263EB430300F021F8DDF804E0DDE96D
:100BD800022304B0524263EB4303704753B94AB946
:100BE800002908BF00281CBF4FF0FF314FF0FF302D
:100BF80000F072B9ADF1080C6DE904CE00F006F80A
:100C0800DDF804E0DDE9022304B070472DE9F04780
:100C1800089E04468846002B4BD18A42154667D960
:100C2800B2FA82F24AB1C2F1200701FA02F320FABD
:100C380007F7954047EA030894404FEA154E230CFE
:100C4800B8FBFEF71FFA85FC0EFB178843EA08433A
:100C580007FB0CF1994209D9EB1807F1FF3080F036
:100C68001B81994240F21881023F2B445B1AA4B2BF
:100C7800B3FBFEF00EFB103344EA034400FB0CFC0C
:100C8800A44509D92C1900F1FF3380F00781A44548
:100C980040F2048102382C4440EA0740A4EB0C04DB
:100CA80000271EB1D4400023C6E900433946BDE8F9
:100CB800F0878B4209D9002E00F0EB800027C6E9A7
:100CC800000138463946BDE8F087B3FA83F7002FAC
:100CD80047D18B4202D3824200F2FA80841A61EB38
:100CE800030301209846002EE0D0C6E90048DDE75E
:100CF80002B9FFDEB2FA82F2002A40F08F80491B67
:100D08004FEA154E1FFA85F80127B1FBFEFC230CAC
:100D18000EFB1C1143EA014308FB0CF1994207D969
:100D2800EB180CF1FF3002D2994200F2CD808446D4
:100D3800591AA3B2B1FBFEF00EFB101443EA0444A7
:100D480008FB00F8A04507D92C1900F1FF3302D29F
:100D5800A04500F2B6801846A4EB080440EA0C400F
:100D68009FE7C7F1200CBB4022FA0CFE4EEA030EA7
:100D780001FA07F420FA0CF521FA0CF34FEA1E48A1
:100D88002543B3FBF8F92C0C08FB19331FFA8EFA2C
:100D980044EA034309FB0AF49C4202FA07F200FA08
:100DA80007F10BD91EEB030309F1FF3080F08780B0
:100DB8009C4240F28480A9F1020973441B1BADB226
:100DC800B3FBF8F008FB103345EA034400FB0AFACA
:100DD800A24508D91EEB040400F1FF336BD2A245EB
:100DE80069D90238744440EA0940A0FB0289A4EB9F
:100DF8000A044C45C2464B4654D351D0002E69D004
:100E0800B1EB0A0564EB030404FA0CFCFD40FC405A
:100E18004CEA0505C6E90054002747E7C2F120035C
:100E280020FA03F7954001FA02F021FA03F34FEA9A
:100E3800154E3843010CB3FBFEF71FFA85F80EFB7D
:100E4800173341EA034107FB08F38B4204FA02F423
:100E580007D9691807F1FF3C2FD28B422DD9023FE1
:100E68002944CB1A81B2B3FBFEF00EFB103341EAE2
:100E7800034100FB08F38B4207D9691800F1FF3CD6
:100E880017D28B4215D902382944C91A40EA0747B4
:100E98003BE73746304609E70746E7E61846FBE6EC
:100EA8004145ABD2B8EB020A69EB0E020138134692
:100EB800A4E76046E9E7184695E76746D1E7814623
:100EC8007CE702382C4447E7ACF1020C2B442FE7AF
:100ED800384608E73746E9E6704700BF10B50446CC
:100EE8000E4B18784FF47A73B3FBF0F30C4A106882
:100EF800B0FBF3F000F094F868B90F2C01D9012089
:100F08000AE0002221464FF0FF3000F049F8034B79
:100F18005C60002000E0012010BD00BF0000002040
:100F28002800002008B50B4B1A6842F400721A60BA
:100F38001A6842F480621A601A6842F480721A6071
:100F4800032000F01BF80020FFF7C8FF01F0BEFFE8
:100F5800002008BD003C0240034A1168034B1B787F
:100F68000B441360704700BF5000002000000020B1
:100F7800014B1868704700BF50000020074AD3682B
:100F880023F4E0631B041B0C000200F4E060184328
:100F980040F0BF6040F40030D060704700ED00E0E2
:100FA80030B4174BDB68C3F30223C3F10704042CE6
:100FB80028BF04241D1D062D18D9033B4FF0FF350B
:100FC80005FA04F421EA0401994005FA03F322EA38
:100FD8000303194300280BDB0901C9B200F1604083
:100FE80000F5614080F8001330BC70470023E5E746
:100FF80000F00F000901C9B2024B1954F4E700BF11
:1010080000ED00E014ED00E000F01F0240090123AC
:101018009340024A42F82030704700BF00E100E0E8
:101028000138B0F1807F0AD2064B5860064AF02199
:1010380082F823100020986007221A607047012068
:10104800704700BF10E000E000ED00E0042805D084
:10105800054A136823F0040313607047024A1368B3
:1010680043F004031360704710E000E0704708B5D0
:10107800FFF7FCFF08BD70B110B50446037933B122
:1010880002232371002020610123237110BD4371C5
:1010980001F066FFF4E7012070474379012B31D056
:1010A80010B40123437102220271046822688B4044
:1010B80013432360B1B902681168136803F0380359
:1010C80011F0040F01D0382B07D00123037100233E
:1010D800437118465DF8044B7047536843F00103A9
:1010E8005360F2E702681168136803F4601311F49F
:1010F800802FEAD0B3F5601FE7D1536843F00203AD
:101108005360E2E702207047704710B50446036851
:101118005A6B12F4005F05D123685A6B12F0005F16
:1011280011D110BD04220271026942F0010202616C
:101138004FF400525A630268136823F48053136013
:10114800FFF7E2FFE8E704222271226942F0020277
:1011580022614FF000525A632268136823F08053CB
:101168001360204600F03DF8DBE74379012B1FD0E0
:1011780070B401254571022303710668336840F68F
:10118800FE74944023EA04040B6849680B439340B7
:101198002343336004682368C02101FA02F223EA7A
:1011A80002022260057100234371184670BC704723
:1011B8000220704710B483B00024019400680190A5
:1011C80051B101990A4414320192019A1360002026
:1011D80003B05DF8044B704701990A440832019244
:1011E800F3E770470268D3B2103B0B49A1FB031326
:1011F8001B090A49C95CC165032B06D822F47F7212
:1012080022F003028265806D704722F47F7222F01B
:10121800030204328265F6E7ABAAAAAA38320008AC
:10122800836A826992B9012B0AD01BB1022B01D0C3
:1012380000207047C36A13F0807F2CD100207047CC
:10124800C36AB3F1C07F28D000207047B2F5005FB1
:1012580005D0022B29D9032B15D000207047032B6A
:1012680003D8DFE803F01C041C0A00207047C36A97
:1012780013F0807F15D100207047C36AB3F1C07F97
:1012880011D000207047C36A13F0807F01D001207D
:1012980070470020704701207047012070470120E7
:1012A80070470120704701207047012070470000F7
:1012B80070B50446FFF75CFE002C5BD005460023A2
:1012C80084F83430022384F835302268136823F018
:1012D8000103136023681A6812F0010F0AD0FFF7A0
:1012E80047FE401B0528F5D920236365032084F8B1
:1012F800350070BD1A68204810406168A2680A432A
:10130800E1680A4321690A4361690A43A1690A43FA
:10131800E1690A43216A0A430243616A04291ED02B
:101328001A602668756925F00705636A1D43042B52
:1013380007D1A36A1D43E36A1BB12046FFF770FF7C
:1013480090B975612046FFF74DFFE26D3F2393404A
:10135800836000206065012384F83530C9E7E16ABD
:10136800206B01430A43DBE740236365012084F8CF
:101378003500BEE70120BCE73F8010F0F0B583B030
:10138800044600230193724B1D68724BA3FB05357D
:10139800AD0A876D3E68C26D08239340334210D072
:1013A80003681A6812F0040F0BD01A6822F00402BE
:1013B8001A60C26D08239340BB60436D43F001037C
:1013C8004365E26D01239340334209D02268526994
:1013D80012F0800F04D0BB60636D43F002036365B5
:1013E800E26D04239340334209D02268126812F058
:1013F800020F04D0BB60636D43F004036365E26DC4
:1014080010239340334224D02268126812F0080F48
:101418001FD0BB6023681A6812F4802F0DD01B6898
:1014280013F4002F04D1236C9BB12046984710E099
:10143800A36C73B1204698470BE01A6812F4807FBA
:1014480003D11A6822F008021A60236C0BB12046F7
:101458009847E26D20239340334255D022681268A2
:1014680012F0100F50D0BB6094F83530DBB2052B6A
:101478000ED023681A6812F4802F33D01B6813F437
:10148800002F2AD1636C002B3ED0204698473BE0C2
:101498002268136823F0160313602268536923F047
:1014A80080035361236CA3B12268136823F00803F7
:1014B8001360E26D3F239340BB60002384F834300F
:1014C800012384F83530236D002B3FD02046984700
:1014D8003CE0A36C002BE7D1EBE7E36BA3B120461C
:1014E800984711E01A6812F4807F09D11A6822F02F
:1014F80010021A60002384F83430012384F8353050
:10150800E36B0BB120469847636DFBB1636D13F035
:10151800010F17D0052384F835302268136823F0AB
:1015280001031360019B01330193AB4204D8236884
:101538001B6813F0010FF5D1002384F83430012320
:1015480084F83530E36C0BB12046984703B0F0BD02
:1015580028000020B5814E1B00230F2B00F2D180FC
:10156800F0B482B039E0062200E00022B2403A43EB
:101578000234644E46F82420634A1468EA4302EAB7
:1015880004064F6817F4803F01D045EA04065E4C14
:101598002660646802EA04064F6817F4003F01D029
:1015A80045EA0406584C6660A46802EA04064F68D7
:1015B80017F4801F01D045EA0406534CA660E4687E
:1015C80022404E6816F4001F01D045EA04024E4C32
:1015D800E26001330F2B00F2918001229A400C68DF
:1015E80004EA0205AA42F4D14C68022C01D0122C5C
:1015F80010D1DE08083650F826C003F00704A7000B
:101608000F24BC402CEA040C0C69BC4044EA0C04CE
:1016180040F8264004685F000326BE40F64306EA09
:10162800040C4C6804F00304BC4044EA0C04046055
:101638004C6804F1FF3CBCF1010F03D9112C01D017
:10164800122C10D1846806EA040CCC68BC4044EA29
:101658000C048460446824EA02024C68C4F3001451
:101668009C4014434460C26816408A68BA403243BA
:10167800C2604A6812F0805FABD000220192234A10
:10168800546C44F480445464526C02F480420192D5
:10169800019A9C08A61C1B4A52F8267003F0030204
:1016A80096000F22B24027EA0207194A90423FF4F7
:1016B8005CAF02F58062904216D002F580629042DB
:1016C80014D002F58062904212D002F580629042F6
:1016D80010D002F5806290420ED002F580629042EE
:1016E8003FF441AF072241E701223FE702223DE7ED
:1016F80003223BE7042239E7052237E702B0F0BCB2
:101708007047704700380140003C014000380240F3
:101718000000024012B90904816170478161704775
:1017280008B5054B5B69034200D108BD024B5861FF
:1017380001F010F9F9E700BF003C0140002800F073
:101748009D8070B504464F4B1B6803F00F038B4216
:1017580009D2CBB24B4A1370136803F00F038B42C4
:1017680001D0012070BD236813F0020F17D013F0C9
:10177800040F04D0444A936843F4E0539360236809
:1017880013F0080F04D0404A936843F46043936011
:101798003D4A936823F0F003A068034393600D4625
:1017A800236813F0010F32D06368012B21D09A1EF1
:1017B800012A25D9344A126812F0020F60D0324942
:1017C8008A6822F0030213438B60FFF7D1FB0646B9
:1017D8002D4B9B6803F00C036268B3EB820F16D0A5
:1017E800FFF7C6FB801B41F288339842F0D90320EB
:1017F800B8E7254A126812F4003FE0D10120B1E7AA
:10180800214A126812F0007FD9D10120AAE71D4BA6
:101818001B6803F00F03AB4209D9EAB2194B1A70DF
:101828001B6803F00F03AB4201D001209AE723683D
:1018380013F0040F06D0144A936823F4E053E168C8
:101848000B439360236813F0080F07D00E4A936880
:1018580023F46043216943EAC103936000F040F830
:10186800094B9B68C3F30313084AD35CD840084B61
:1018780018600020FFF732FB002073E70120704753
:1018880001206FE7003C0240003802404032000867
:1018980028000020014B1868704700BF280000206E
:1018A80008B5FFF7F7FF044B9B68C3F38223034A8D
:1018B800D35CD84008BD00BF003802405032000851
:1018C80008B5FFF7E7FF044B9B68C3F34233034AAD
:1018D800D35CD84008BD00BF003802405032000831
:1018E8002DE9F04B5C4B9B6803F00C03082B07D0E9
:1018F8000C2B5BD0042B00F0AD805848BDE8F08B72
:10190800554B5A6802F03F025B6813F4800F2AD0E7
:10191800514B5B68C3F388131E4600275C01002502
:10192800E41A65EB0705A90141EA9461A001001BCF
:1019380061EB0501CB0043EA5073C400A01943EBE7
:1019480007014B0243EAD0534402204619460023BC
:10195800FFF744F9404B5B68C3F3014301335B0075
:10196800B0FBF3F0CAE73C4B5B68C3F388131E4631
:1019780000275C010025E41A65EB0705A90141EA87
:101988009461A001001B61EB0501CB0043EA507391
:10199800C400A01943EB07018B0243EA9053840269
:1019A800204619460023FFF719F9D3E72A4B5A684E
:1019B80002F03F025B6813F4800F28D0264B5B6867
:1019C800C3F388131E4600275C010025E41A65EB63
:1019D8000705A90141EA9461A001001B61EB05011B
:1019E800CB0043EA5073C400A01943EB07014B0234
:1019F80043EAD0534402204619460023FFF7EEF885
:101A0800154B5B68C3F30273B0FBF3F076E7124B38
:101A18005B68C3F388131E4600275C010025E41A9F
:101A280065EB0705A90141EA9461A001001B61EB80
:101A38000501CB0043EA5073C400A01943EB07012A
:101A48008B0243EA90538402204619460023FFF78D
:101A5800C5F8D5E7024851E7003802400024F400F1
:101A680000127A0070B582B00446036813F0010FC3
:101A780041D0A64B9B6803F00C03042B32D0A34B38
:101A88009B6803F00C03082B27D0A04B9B6803F03E
:101A98000C030C2B59D06368B3F5803F5BD0B3F5CA
:101AA800A02F5ED0994B1A6822F480321A601A6807
:101AB80022F480221A606368002B5CD0FFF758FA82
:101AC8000546924B1B6813F4003F14D1FFF750FAF8
:101AD800401B6428F5D903209DE18C4B5B6813F407
:101AE800800FD2D0894B1B6813F4003F03D0636882
:101AF800002B00F08D81236813F0020F67D0834B11
:101B08009B6813F00C0F4AD0804B9B6803F00C03C2
:101B1800082B3FD07D4B9B6803F00C030C2B48D05F
:101B2800E368002B74D07A4B01221A60FFF720FA81
:101B38000546764B1B6813F0020F60D1FFF718FAC1
:101B4800401B0228F5D9032065E1704B5B6813F44C
:101B5800800FA0D0C6E76D4A136843F48033136042
:101B6800A9E76A4B1A6842F480221A601A6842F49C
:101B780080321A609FE7FFF7FBF90546634B1B6845
:101B880013F4003FB7D0FFF7F3F9401B6428F5D9E9
:101B9800032040E15D4B5B6813F4800FBAD15B4BC7
:101BA8001B6813F0020F0AD0E368012B07D001204D
:101BB80031E1564B5B6813F4800FB1D1EFE7534A1C
:101BC800136823F0F803216943EAC103136023680B
:101BD80013F0080F40D0636963B34E4B01221A60BB
:101BE800FFF7C6F90546494B5B6F13F0020F33D177
:101BF800FFF7BEF9401B0228F5D903200BE1434A41
:101C0800136823F0F803216943EAC1031360DEE790
:101C18003F4B00221A60FFF7ABF905463B4B1B68A8
:101C280013F0020FD3D0FFF7A3F9401B0228F5D910
:101C38000320F0E0374B00221A60FFF799F90546B8
:101C4800324B5B6F13F0020F06D0FFF791F9401B80
:101C58000228F5D90320DEE0236813F0040F79D0B9
:101C68002A4B1B6C13F0805F33D100230193274B61
:101C78001A6C42F080521A641B6C03F08053019373
:101C8800019B0125244B1B6813F4807F23D0A36894
:101C9800012B34D0052B41D01C4B1A6F22F00102C6
:101CA8001A671A6F22F004021A67A368002B3FD044
:101CB800FFF75EF90646154B1B6F13F0020F48D16C
:101CC800FFF756F9801B41F288339842F3D9032075
:101CD800A1E00025D6E7104A136843F48073136027
:101CE800FFF746F906460C4B1B6813F4807FCED1EC
:101CF800FFF73EF9801B0228F5D903208BE0034A41
:101D0800136F43F001031367CFE700BF00380240A9
:101D180000004742800E474200700040404B1A6F57
:101D280042F004021A671A6F42F001021A67BCE710
:101D3800FFF71EF906463A4B1B6F13F0020F08D047
:101D4800FFF716F9801B41F288339842F3D9032034
:101D580061E0E5B9A369002B5CD0314A926802F0D2
:101D68000C02082A59D0022B17D02E4B00221A60D9
:101D7800FFF7FEF804462A4B1B6813F0007F45D096
:101D8800FFF7F6F8001B0228F5D9032043E0244AA0
:101D9800136C23F080531364DCE7224B00221A6093
:101DA800FFF7E6F805461E4B1B6813F0007F06D0C8
:101DB800FFF7DEF8401B0228F5D903202BE0E36982
:101DC800226A1343626A43EA8213A26A5208013AFA
:101DD80043EA0243E26A43EA0263226B43EA02737C
:101DE8000F4A53600F4B01221A60FFF7C1F80446EF
:101DF8000B4B1B6813F0007F06D1FFF7B9F8001BE7
:101E08000228F5D9032006E0002004E0002002E0C3
:101E1800012000E0002002B070BD0120FBE700BFF8
:101E2800003802406000474210B4036A046A24F094
:101E380001040462846924F0F00444EA021223F0E5
:101E48000A030B43826103625DF8044B704710B4C8
:101E5800036A23F0100303628469036A24F470445C
:101E680044EA023223F0A00343EA011382610362C9
:101E78005DF8044B7047836823F0700341F0070155
:101E880019438160704710B4846824F47F4442EA9F
:101E980003230B43234383605DF8044B70470223FD
:101EA80080F839300268136843F001031360012396
:101EB80080F83930002070470268D36843F0010386
:101EC800D3600268136843F0010313600020704771
:101ED80090F83830012B7DD010B50446012380F8E6
:101EE8003830022380F839300268936823F47F433E
:101EF80023F0770393600B68402B57D010D9702BD1
:101F08003ED01FD8502B47D0602B32D1CA684968C1
:101F18000068FFF79CFF60212068FFF7ACFF28E00E
:101F2800102B4DD008D9202B4FD0302B21D1302168
:101F38000068FFF7A0FF1CE0DBB900210068FFF78D
:101F48009AFF16E0B3F5805F0ED0B3F5005F10D1AD
:101F5800CB684A6889680068FFF795FF226893682C
:101F680043F48043936004E00268936823F0070316
:101F78009360012384F83930002084F8380010BDBC
:101F8800CB684A6889680068FFF77DFF2268936814
:101F980043F077039360ECE7CA6849680068FFF785
:101FA80043FF50212068FFF766FFE2E7CA684968E7
:101FB8000068FFF739FF40212068FFF75CFFD8E78A
:101FC80010210068FFF757FFD3E720210068FFF7CB
:101FD80052FFCEE70220704770477047704770473E
:101FE80010B5044603681A6912F0020F11D0DA68B6
:101FF80012F0020F0DD06FF002021A61012303766E
:1020080003689B6913F0030F70D0FFF7E6FF002306
:10201800237623681A6912F0040F12D0DA6812F0D6
:10202800040F0ED06FF004021A610223237623688E
:102038009B6913F4407F5FD02046FFF7CEFF002353
:10204800237623681A6912F0080F12D0DA6812F0A2
:10205800080F0ED06FF008021A6104232376236854
:10206800DB6913F0030F4ED02046FFF7B6FF0023BD
:10207800237623681A6912F0100F12D0DA6812F06A
:10208800100F0ED06FF010021A6108232376236810
:10209800DB6913F4407F3DD02046FFF79EFF002305
:1020A800237623681A6912F0010F03D0DA6812F058
:1020B800010F36D123681A6912F0800F03D0DA684D
:1020C80012F0800F34D123681A6912F0400F03D040
:1020D800DA6812F0400F32D123681A6912F0200F23
:1020E80003D0DA6812F0200F30D110BDFFF774FF6B
:1020F8002046FFF773FF8AE72046FFF76DFF20466B
:10210800FFF76CFF9BE72046FFF766FF2046FFF7C7
:1021180065FFACE72046FFF75FFF2046FFF75EFF4D
:10212800BDE76FF001021A61204600F045FDC1E7E6
:102138006FF080021A61204600F0B3F8C3E76FF031
:1021480040021A612046FFF74AFFC5E76FF02002F8
:102158001A61204600F0A4F8C7E7000003682E4A79
:10216800904212D0B0F1804F0FD0A2F57C4290423D
:102178000BD002F58062904207D002F5806290424F
:1021880003D002F57842904203D123F070034A68E5
:102198001343214A90422AD0B0F1804F27D0A2F5AC
:1021A8007C42904223D002F5806290421FD002F513
:1021B800806290421BD002F57842904217D002F517
:1021C8007052904213D002F5806290420FD002F50F
:1021D800806290420BD0A2F59832904207D002F567
:1021E8008062904203D002F58062904203D123F4CA
:1021F8004073CA68134303608B68C3620B688362C9
:10220800054B984203D003F58063984201D10B69CE
:10221800036301234361704700000140A8B110B572
:10222800044690F839305BB1022384F83930211D17
:102238002068FFF793FF012384F83930002010BD90
:1022480080F8383000F0E0FEEEE70120704790F8A3
:102258003830012B22D030B4012280F838200223F4
:1022680080F839300468636823F070036360046899
:1022780063680D682B4363600468A36823F08003D8
:10228800A3600468A36849680B43A36080F83920F9
:10229800002380F83830184630BC70470220704759
:1022A800704770472DE9F843044601680A6922F42B
:1022B8004052C36813430B610168CA6822F416428E
:1022C80022F00C0283680069034360690343E069F4
:1022D80003431343CB6021684A6922F44072A3691F
:1022E80013434B61E369B3F5004F60D02368B84AE4
:1022F800934200F0148102F58062934200F00F814E
:10230800FFF7CEFA00EB800000EB80006568AD00B7
:10231800B0FBF5F5AF4FA7FB05356D092E01FFF7AB
:10232800BFFA00EB800000EB80006568AD00B0FBF1
:10233800F5F9FFF7B5FA00EB800000EB800065685F
:10234800AD00B0FBF5F5A7FB05356D094FF0640846
:1023580008FB15952D013235A7FB05356D0905F0EC
:10236800F0053544FFF79CFA00EB800000EB800095
:102378006668B600B0FBF6F6FFF792FA00EB80004D
:1023880000EB800063689B00B0FBF3F0A7FB003014
:10239800400908FB10684FEA081808F13208A7FB43
:1023A8000837C7F3431723682F449F600DE123685C
:1023B800874A93425BD002F58062934257D0FFF779
:1023C8006FFA00EB800000EB800065686D00B0FBE1
:1023D800F5F5804FA7FB05356D092E01FFF760FA6B
:1023E80000EB800000EB800065686D00B0FBF5F93C
:1023F800FFF756FA00EB800000EB800065686D007F
:10240800B0FBF5F5A7FB05356D094FF0640808FB2F
:102418001595ED003235A7FB05356D096D0005F4FE
:10242800F8753544FFF73CFA00EB800000EB8000BC
:1024380066687600B0FBF6F6FFF732FA00EB80002C
:1024480000EB800063685B00B0FBF3F3A7FB03239A
:102458005B0908FB13684FEAC80808F13208A7FBB4
:102468000837C7F3421723682F449F60ADE0FFF792
:1024780027FA00EB800000EB800065686D00B0FB78
:10248800F5F5544FA7FB05356D092E01FFF718FA2E
:1024980000EB800000EB800065686D00B0FBF5F98B
:1024A800FFF70EFA00EB800000EB800065686D0016
:1024B800B0FBF5F5A7FB05356D094FF0640808FB7F
:1024C8001595ED003235A7FB05356D096D0005F44E
:1024D800F8753544FFF7F4F900EB800000EB800055
:1024E80066687600B0FBF6F6FFF7EAF900EB8000C5
:1024F80000EB800063685B00B0FBF3F3A7FB0323EA
:102508005B0908FB13684FEAC80808F13208A7FB03
:102518000837C7F3421723682F449F6055E0FFF739
:10252800CFF900EB800000EB80006568AD00B0FBE0
:10253800F5F5284FA7FB05356D092E01FFF7C0F902
:1025480000EB800000EB80006568AD00B0FBF5F99A
:10255800FFF7B6F900EB800000EB80006568AD007E
:10256800B0FBF5F5A7FB05356D094FF0640808FBCE
:1025780015952D013235A7FB05356D0905F0F005D8
:102588003544FFF79DF900EB800000EB800066689A
:10259800B600B0FBF6F6FFF793F900EB800000EB0E
:1025A800800063689B00B0FBF3F0A7FB0030400994
:1025B80008FB10684FEA081808F13208A7FB08372B
:1025C800C7F3431723682F449F60BDE8F88300BF13
:1025D800001001401F85EB5158B310B5044690F820
:1025E80039300BB3242384F839302268D36823F4B4
:1025F8000053D3602046FFF755FE2268136923F481
:10260800904313612268536923F02A0353612268B7
:10261800D36843F40053D3600020E063202384F898
:10262800393084F83A3010BD80F8383000F026FD93
:10263800D8E70120704708447047401A7047F0B443
:10264800C717CD1701FB07F300FB0533A1FB0045B6
:102658001D44C2F12003B2F1200124FA02F005FA68
:1026680003F340EA030002D445FA01F10843F0BC41
:102678007047F8B51446C717A2F12003C2F1200528
:1026880007FA02F600FA03F31E4320FA05F50A4694
:10269800CB17A04046EA0501FEF750FAF8BD38B559
:1026A80055EC104B012303FA00F0FDF7FBFE224620
:1026B8002B46FDF761FFFEF7F9F938BD70B50E46F8
:1026C800FDF7F0FE04460D460120B040FDF7EAFE96
:1026D80002460B4620462946FEF778F841EC100BD7
:1026E80070BD000030B58BB000240194254B1A6BE7
:1026F80042F004021A631A6B02F004020192019A72
:1027080002941A6B42F080021A631A6B02F080027C
:102718000292029A03941A6B42F001021A631A6B2E
:1027280002F001020392039A04941A6B42F0020227
:102738001A631B6B03F002030493049B124D224699
:1027480020212846FEF7E6FF4FF4005305930F4B70
:102758000693079405A90E48FEF7FEFE202305936D
:10276800012306930794089405A92846FEF7F4FE6A
:10277800224621462820FEF713FC2820FEF744FCB9
:102788000BB030BD003802400000024000002110AC
:10279800000802400000000038B52DED028B00242F
:1027A800694D102045EC104BFFF779FF674BD86156
:1027B8001021FFF783FF22462B4651EC100BFEF742
:1027C80043F918B1624A1378013313709FED428BB5
:1027D8001020B0EE480AF0EE680AFFF760FF5B4C85
:1027E80020611020B0EE480AF0EE680AFFF757FFA4
:1027F800606110209FED3A0BFFF751FFA061102098
:102808009FED390BFFF74BFFE0629FED398B1020EE
:10281800B0EE480AF0EE680AFFF741FF2062102088
:10282800B0EE480AF0EE680AFFF739FF6062102040
:102838009FED310BFFF733FFA062E369E360236983
:10284800236063696360A369A36010209FED2C0B6C
:10285800FFF725FF206310209FED2B0BFFF71FFFCD
:1028680060630023A363E36310209FED290BFFF748
:1028780016FF206410209FED280BFFF710FF6064FF
:1028880010209FED270BFFF70AFFA06410209FED93
:10289800260BFFF704FFE06410209FED250BFFF7E0
:1028A800FEFE206510209FED240BFFF7F8FE606503
:1028B80010209FED230BFFF7F2FEA065256D616DDB
:1028C800FFF7BBFE102201462846FFF7D2FEE0655F
:1028D800BDEC028B38BD00BF9A9999999999C93F67
:1028E800CDCCCCCCCCCC1640000000000000694018
:1028F800333333333333D33F00000000000010403C
:10290800000000000000F0BF9A9999999999B93F81
:102918002D431CEBE2361A3F555555555555E53FA5
:10292800000000000000D03F000000000000E83F69
:102938000000000000FEAF4000000000000023C0BF
:10294800295C8FC2F528284000006940400100201A
:1029580048000020B0F5005F00D0704708B5134A62
:102968005378DBB2002B0CBF0123002353700ED029
:10297800002220210E48FEF7CDFE0E4BDA69DA6000
:102988001A691A605A695A609A699A6008BD0122E0
:1029980020210748FEF7BEFE064BDA6ADA601A6A9B
:1029A8001A605A6A5A609A6A9A60EFE748000020EB
:1029B80000000240400100202DE9F84305460C467E
:1029C800294B5B889AB2294BA3FB02135B0A4FF48D
:1029D800FA5101FB13239BB2002B3DD0244BD3F8B3
:1029E80000805F68D3F80890214E10226968306B28
:1029F800FFF725FEA968FFF720FE2060102269680E
:102A08004046FFF71CFE2968FFF715FE6060D5F801
:102A1800088049462868FFF710FE10220146404604
:102A2800FFF70DFE01463846FFF705FEA0601022AD
:102A38002168F068FFF703FE206010226168F068E3
:102A4800FFF7FDFD60601022A168F068FFF7F7FD51
:102A5800A0602046BDE8F883054BD3F800805F6886
:102A6800D3F80890C0E700BF48000020D34D62109B
:102A7800400100202DE9F8430446364BDD6D596DC1
:102A8800FFF7DBFD102201462846FFF7D8FD10218D
:102A9800FFF714FE59EC108B10212046FFF70EFEAD
:102AA80057EC106B2C4B5D88013D40464946FEF7BC
:102AB80025F884B2294B23F8154032463B4628496D
:102AC800D1E90001FDF7CAFF10B1254BC3E9006742
:102AD80032463B462249D1E90201FDF7DDFF10B13C
:102AE8001F4BC3E902671C4A5388013B1B4931F855
:102AF80013109388994205D95388013B174931F837
:102B080013309380144B5B88013B144A32F813202E
:102B1800134B1B8A9A4207D20F4B5B88013B0F4A23
:102B280032F813200E4B1A820B4B5B889BB242F291
:102B38001072934202D02046BDE8F883064B5B88AA
:102B4800013B064A32F81300FDF79CFC044BC3E92D
:102B58000601F0E74001002048000020E0010020C5
:102B68000800002038B504460D4610220068FFF71B
:102B780066FD2060102229466068FFF760FD6060EE
:102B880010222946A068FFF75AFDA060204638BDEC
:102B980038B504460D4609680068FFF74CFD20600B
:102BA80069686068FFF747FD6060A968A068FFF77B
:102BB80042FDA060204638BD0268274B9A4200D0EB
:102BC800704770B586B0254E738801339BB2738009
:102BD800234D69462846FFF7EFFEA5F13404E9685E
:102BE8006846FFF7BFFF29696846FFF7BBFF014644
:102BF8002846FFF7CDFF03A9FFF7DEFEE96803A823
:102C0800FFF7B0FF69696846FFF7ACFFA96903A839
:102C1800FFF7A8FF69462846FFF7BAFF03A9284629
:102C2800FFF7B6FF606BFFF725FF0346002211464A
:102C38000C48FEF7BFFA73889AB20B4BA3FB02133A
:102C48005B0B42F2117101FB13239BB20BB90022FB
:102C5800728006B070BD00BF00000140480000202F
:102C680074010020B400002019B9B1D1FEE70000BA
:102C780008B50B480B4B03604FF416534360002311
:102C88008360C36003610C2242618361C361FFF703
:102C9800A3FC00B908BD40F29F210348FFF7E6FFF7
:102CA800A0010020004400405832000800B587B059
:102CB8001848194B036041F267034360002383609F
:102CC8000122C26003614361FFF7A8FA98B906A917
:102CD8004FF4805341F8103D0E48FFF7F9F878B9E2
:102CE80000230093019369460A48FFF7B0FA60B9D8
:102CF80007B05DF804FB40F267210848FFF7B6FF0C
:102D080040F26D210548FFF7B1FF4FF41D710348EC
:102D1800FFF7ACFF04010020000001405832000812
:102D280000B583B00D480E4B0360FEF7A4F958B9FF
:102D3800042300930022019269460848FEF715FA19
:102D480038B903B05DF804FB40F24A210548FFF7A3
:102D58008DFF40F253210348FFF788FFB40000209D
:102D6800007400405832000800B583B01148124B77
:102D7800036046F65F534360002383600223C36009
:102D8800FFF74CFA58B920230093002301936946B2
:102D98000848FFF75CFA38B903B05DF804FB40F265
:102DA80085210648FFF762FF4FF423710348FFF7B8
:102DB8005DFF00BFC8000020001000405832000826
:102DC80000B595B0002200922B4B196C41F0805150
:102DD80019641B6C03F080530093009B01922749F0
:102DE8000B6823F4404343F480430B600B6803F4FF
:102DF80040430193019B0223079301210A9110216B
:102E08000B910D930E920F914FF4A8721092042219
:102E180011921293139307A8FEF724FE08BB0F2301
:102E2800029302210391002304934FF480520592E8
:102E3800069302A8FEF782FCC0B9FEF72BFD104BE3
:102E4800A3FB00308009FEF7EBF80420FEF7FEF83C
:102E5800002211464FF0FF30FEF7A2F815B05DF8DA
:102E680004FB40F222210748FFF700FF4FF40C71E2
:102E78000448FFF7FBFE00BF003802400070004026
:102E8800D34D62105832000808B5FFF785FCFEF7ED
:102E980049F8FFF795FFFFF725FCFFF7E9FEFFF775
:102EA80005FFFFF73DFFFFF75FFF0548FFF704F851
:102EB8000448FEF7F4FF00210348FEF7EEF8FEE7AA
:102EC80004010020C8000020B400002010B582B022
:102ED80000240094214B5A6C42F480425A645A6C84
:102EE80002F480420092009A01941A6C42F08052D7
:102EF8001A641B6C03F080530193019B0720FEF7B3
:102F08003DF8224621466FF00B00FEF749F82246AD
:102F180021466FF00A00FEF743F8224621466FF07B
:102F28000900FEF73DF8224621466FF00400FEF73F
:102F380037F8224621466FF00300FEF731F82246A3
:102F480021466FF00100FEF72BF8224621464FF08C
:102F5800FF30FEF725F802B010BD00BF0038024070
:102F68000268244B9A4200D0704730B587B00446B7
:102F78000025009503F5E2331A6C42F000521A64FA
:102F88001B6C03F000530093009B10230193032351
:102F98000293039501A91848FEF7DEFA1748184B63
:102FA80003604FF06063436040238360C5604FF463
:102FB800806303614FF4006343614FF400538361FE
:102FC8004FF48073C36105624562FEF771F960B919
:102FD8000A4BA3609C63002211463620FDF7E0FFF0
:102FE8003620FEF711F807B030BD74210548FFF709
:102FF8003DFEEDE700740040000002405400002050
:10300800886002406832000800B583B00368184A37
:10301800934205D0174A934216D003B05DF804FBDB
:1030280000210091144B5A6C42F001025A645B6C07
:1030380003F001030093009B0A461920FDF7B0FF37
:103048001920FDF7E1FFE8E7002101910A4B1A6C0E
:1030580042F010021A641B6C03F010030193019BE9
:103068000A463620FDF79CFF3620FDF7CDFFD4E752
:103078000000014000100040003802400268114B77
:103088009A4200D0704700B587B0002300930E4BDA
:103098001A6C42F400321A641B6C03F40033009378
:1030A800009B0C2301930223029301230393032320
:1030B80004930723059301A90448FEF74DFA07B0C6
:1030C8005DF804FB00440040003802400000024064
:1030D8007047FEE7FEE7FEE7FEE770477047704778
:1030E80008B5FDF739FFFDF7C2FF08BD08B502486E
:1030F800FEF744F908BD00BF5400002008B5024897
:10310800FEF76EFF08BD00BF0401002008B50348A4
:10311800FDF7FBFF0248FEF763FF08BDB40000207F
:10312800C800002008B54FF40050FEF7F9FA08BDB2
:103138000F49D1F8883043F47003C1F888300D4B3B
:103148001A6842F001021A60002098601A6822F09A
:10315800847222F480321A60074A5A601A6822F48C
:1031680080221A60D8604FF000638B60704700BF00
:1031780000ED00E00038024010300024DFF834D0C1
:10318800002103E00C4B5B58435004310B480C4BB7
:1031980042189A42F6D30B4A02E0002342F8043B55
:1031A800094B9A42F9D3FFF7C3FF00F011F8FFF774
:1031B8006BFE7047000002209432000800000020D7
:1031C8002C0000202C00002000500020FEE700000A
:1031D80070B50D4E0D4CA41BA4100025A54209D1B5
:1031E8000B4E0C4C00F018F8A41BA4100025A542A7
:1031F80005D170BD56F8253098470135EEE756F8E9
:10320800253098470135F2E78C3200088C320008E7
:103218008C32000890320008F8B500BFF8BC08BC32
:103228009E467047F8B500BFF8BC08BC9E4670477C
:10323800000610160006101600000000000000002E
:103248000102030406070809000000000102030444
:103258002E2E2F5372632F6D61696E2E630000004E
:103268002E2E2F5372632F73746D33326634787831
:0C3278005F68616C5F6D73702E63000076
:0832840090D9FF7F010000005A
:04328C00ED01000848
:04329000C901000868
:10329400010000001000000000000000000028C031
:1032A4000000000000002840FF0F000000000000A4
:0C32B400B81E85EB51B8CE3F0024F4009A
:040000050800318539
:00000001FF
